:020000040800F2
:10000000C0160020DD010008131100088B10000845
:10001000111100080D030008A113000800000000E2
:100020000000000000000000000000004501000882
:100030000F030008000000008901000815110008E6
:10004000F7010008F7010008F7010008F7010008B0
:10005000F7010008F7010008F7010008F7010008A0
:10006000F7010008F7010008F7010008F701000890
:10007000F7010008F7010008F7010008F701000880
:10008000F7010008F7010008F7010008F701000870
:10009000F7010008F7010008F7010008F701000860
:1000A000F7010008F7010008F7010008F701000850
:1000B000F7010008F7010008F7010008F701000840
:1000C000F7010008F7010008F7010008F701000830
:1000D000F701000895130008F7010008F701000870
:1000E000F7010008F7010008F7010008F701000810
:1000F000F7010008F7010008F7010008F701000800
:10010000F7010008F7010008F7010008F7010008EF
:10011000F7010008F7010008F7010008F7010008DF
:10012000F7010008F7010008F7010008F7010008CF
:10013000DFF80CD000F0D8F800480047711A00082A
:10014000C0160020224B19680868B0E8F00F80F351
:100150000988BFF36F8F4FF0000080F311884EF0D5
:100160000D0E70470000000006480068006880F32C
:10017000088862B661B6BFF34F8FBFF36F8F00DFA1
:1001800000BF00BF08ED00E0EFF30980BFF36F8F01
:100190000F4B1A6820E9F00F106008B54FF05000BF
:1001A00080F31188BFF34F8FBFF36F8F02F08EFE85
:1001B0004FF0000080F31188BDE808401968086816
:1001C000B0E8F00F80F30988BFF36F8F704700BF6E
:1001D00010000020EFF305807047000006488047BC
:1001E00006480047FEE7FEE7FEE7FEE7FEE7FEE71C
:1001F000FEE7FEE7FEE7FEE7831100083101000895
:1002000010B5431A934209D28318881803E010F8F6
:10021000011D03F8011D521EF9D210BD40EA010371
:100220009B0703D009E008C9121F08C0042AFAD2AC
:1002300003E011F8013B00F8013B521EF9D210BD5A
:10024000D2B201E000F8012B491EFBD27047002218
:10025000F6E710B513460A4604461946FFF7F0FFC5
:10026000204610BD10B5044604E00B7800F8013BB1
:1002700003B1491C521EF8D2204610BD421C10F892
:10028000011B0029FBD1801A7047034611F8012B8E
:1002900000F8012B002AF9D11846704730B5054601
:1002A0000020034600E05B1C934205D2EC5CC85C76
:1002B000201A01D1002CF6D130BD30B50B460146D5
:1002C00000202022012409E021FA02F59D4205D3F5
:1002D00003FA02F5491B04FA02F52844151EA2F19F
:1002E0000102F1DC30BD0000064C074D06E0E0687D
:1002F00040F0010394E8070098471034AC42F6D36D
:10030000FFF71AFF503F0008703F0008FEE77047F4
:1003100010B590F821100022022905D00421816334
:1003200080F82020012010BD01680B6823F00E0327
:100330000B6001680B6823F001030B6090F84030FC
:10034000C46B012101FA03F3636080F8211080F887
:100350002020104610BD00002DE9F05F90F821101C
:100360000024022903D004218163012485E001686F
:100370000A6822F00E020A6001680A6822F001028F
:100380000A603F4E3E4FB215DFF8F4C0DFF8F09040
:10039000DFF8ECA0DFF8E8B0DFF8E4E00168783FD0
:1003A00013011502ACF1640CA9F15009AAF13C0A41
:1003B000ABF1280BAEF1140E4FF48018B14227D9DF
:1003C000B9420ED0614512D049451DD0514518D0D3
:1003D000594518D0714501D1424615E0294EB14228
:1003E00001D1012210E0274E1436B14201D1102272
:1003F0000AE0244E2836B14206D0224A3C329142CD
:1004000001D11A4600E02A461E49091F0A602BE066
:10041000B94213D0614517D0494522D051451DD06E
:1004200059451DD0714501D142461AE0B14202D171
:100430004FF0807215E0134EB14201D1012210E05D
:10044000104E1436B14201D110220AE00D4E28366A
:10045000B14206D00B4A3C32914201D11A4600E02B
:100460002A46074980394A60012180F8211000217D
:1004700080F82010416B01B188472046BDE8F09F0D
:10048000800002400804024070B5044600F010F9F4
:100490000546601C02D004480078044400F008F9C6
:1004A000401BA042FAD370BD000000202DE9F84F98
:1004B000DFF8C8910024A9F1040B23460F2709F1A6
:1004C000040AABF1040ED1E00125A54006EA0502BD
:1004D000AA4276D1DFF8A8C14E68A6EB0C086645A3
:1004E0002BD00DDC032E34D005DC36B3012E19D011
:1004F000022E2FD11BE0112E16D0122E2AD119E078
:10050000B8F5881F19D006DCB8F5803F15D0B8F5CE
:10051000801F1FD111E0B8F5001F0ED0B8F5041FE1
:1005200018D10AE0CB6815E0CB681B1D12E0CB6840
:1005300008330FE0CB680C330CE08B682BB1012B38
:100540004FF0080303D0456104E0042302E0056195
:1005500000E00023FF2A01D8064601E000F104066E
:100560004FEA840501D9A5F12005D6F8008007FAE5
:1005700005FC28EA0C0803FA05F548EA0508C6F860
:1005800000804D68ED0070D53E4DAE6946F0010625
:10059000AE61AD6924F0030605F0010500953A4D02
:1005A00006EB050CDCF80850A607360F07FA06F82C
:1005B00025EA0805DFF8D480404503D14FF0000854
:1005C00025E052E0DFF8C880404502D14FF0010835
:1005D0001DE0DFF8C080404502D14FF0020816E070
:1005E000DFF8B480404502D14FF003080FE0DFF898
:1005F000AC80404502D14FF0040808E0DFF8A0804D
:10060000404502D14FF0050801E04FF0060808FA16
:1006100006F848EA0508CCF808804D68D9F800606B
:10062000ED024D4601D5164300E096432E604D681D
:10063000DAF80060AD02554601D5164300E0964356
:100640002E604D68DBF80060AD035D4601D51643B2
:1006500000E096432E604D68DEF80060ED037546BD
:1006600001D5164300E096432E60641C0A681646C6
:10067000E2407FF429AFBDE8F88F00000804014094
:10068000000011100010024000000140000801406D
:10069000000C01400010014000140140001801400E
:1006A000001C01400AB1016170470904FBE700002A
:1006B00001488068704700000000002002488168FF
:1006C000027811448160704700000020074810B58F
:1006D000016841F010010160032000F071F80F2063
:1006E00000F006F800F024F8002010BD00200240C1
:1006F00070B50D4D04464FF47A712878B1FBF0F0D7
:100700000A490968B1FBF0F000F0D8FA48B9102C9A
:1007100007D200222146501E00F032F800206C6003
:1007200070BD012070BD0000000000200C00002002
:100730000B4882B0816941F001018161816901F05A
:1007400001010091C16941F08051C161C06900227D
:1007500000F0805000900F21901E02B000F010B801
:1007600000100240002809DB00F01F020121914027
:100770004009800000F1E020C0F80011704700003F
:10078000F0B40E4B1B680C46C3F30223C3F10705FC
:10079000042D00D90425191D072901D2002300E0EA
:1007A000DB1E012606FA05F1491E214099409E40B4
:1007B000761E16403143F0BC00F018BE0CED00E090
:1007C000064900F0070208684FF6FF03184040EAA8
:1007D0000220034A10430860704700000CED00E05F
:1007E0000000FA052DE9F0470F46050061D0434EA1
:1007F000306800F00700B84209D2306820F00700E6
:1008000038433060306800F00700B84251D12868A2
:100810003B4C810712D5400703D5606840F4E06087
:1008200060602878000703D5606840F4605060601D
:100830006068A96820F0F000084360602878C0076D
:1008400028D06868012810D02168022810D08907B4
:1008500000292EDA616821F0030101436160FFF78E
:1008600027FF804641F288390DE021688903EFE7D0
:100870008901EDE7FFF71CFFA0EB0801494502D90C
:100880000320BDE8F0876068696800F00C00B0EBF9
:10089000810FEFD1306800F00700B8420BD9306803
:1008A00020F0070038433060306800F00700B8429D
:1008B00001D00120E5E72878400705D56068E968A0
:1008C00020F4E060084360602878000706D560687F
:1008D000296920F4605040EAC100606000F038F8F7
:1008E0006168084AC1F30311515CC84006490860B9
:1008F00006480068FFF7FCFE0020C2E70020024027
:1009000000100240C03B00080C0000200400002042
:100910000448054900684968044AC1F30221515C52
:10092000C84070470C00002000100240D03B000877
:100930000448054900684968044AC1F3C221515C72
:10094000C84070470C00002000100240D03B000857
:100950000E4A51680E4801F00C03042B11D0082BED
:100960000FD10C48C1F38343C903C05C0AD5516859
:10097000084AC1F34041921E515C054A5043B0FB06
:10098000F1F07047044948437047000000100240EE
:1009900000127A00B03B000800093D002DE9F84F35
:1009A000040070D02078C04DC00749D06868C0F3FB
:1009B0008100012807D06868C0F38100022809D1AE
:1009C0006868C00306D52868800339D560680028A8
:1009D000E7D035E06068B0F5803F0BD010B1B0F5DE
:1009E000A02F11D0286820F480302860286820F4D7
:1009F000802002E0286840F480302860606890B170
:100A0000FFF756FE06460AE0286840F4802028607A
:100A1000F0E700BFFFF74CFE801B642873D82868FE
:100A20008003F7D50CE0FFF743FE064605E000BF64
:100A3000FFF73EFE801B6428F0D828688003F7D4B7
:100A400020789A4E80074FF001094FF0000839D501
:100A5000686810F00C0F07D06868C0F381000228A6
:100A600009D16868C00306D42868800714D52069B6
:100A7000012808D110E02069B0B1C6F80090FFF756
:100A800017FE074605E00AE1FFF712FEC01B022829
:100A9000C4D828688007F7D52868616920F0F80075
:100AA00040EAC10028600DE0C6F80080FFF700FEB4
:100AB000074604E0FFF7FCFDC01B022823D8286886
:100AC0008007F7D4207800072CD57948A169D9B1DF
:100AD000C0F80090FFF7ECFD074604E0FFF7E8FDE3
:100AE000C01B02280FD8686A8007F7D571484FF4F9
:100AF000FA510068B0FBF1F0009000BF0098411E71
:100B00000091FAD20EE080E0C0F80080FFF7D0FD3F
:100B1000074604E0FFF7CCFDC01B022875D8686AC1
:100B20008007F7D42078400760D5E8690027C00027
:100B300008D4E86940F08050E861E869012700F0D6
:100B4000805000905C480168C90513D40168834651
:100B500041F480710160FFF7ABFD824606E000BF03
:100B6000FFF7A6FDA0EB0A0064284ED8DBF80000D2
:100B7000C005F5D5E06801280AD008B1052813D0D2
:100B8000286A20F001002862286A20F0040002E0B0
:100B9000286A40F001002862E06841F2883B98B181
:100BA000FFF786FD82460BE0286A40F004002862C9
:100BB000EEE700BFFFF77CFDA0EB0A0159455AD8CC
:100BC000286A8007F6D50CE0FFF772FD824605E043
:100BD000FFF76EFDA0EB0A0159454CD8286A800743
:100BE000F6D41FB1E86920F08050E861E06988B36D
:100BF0006968C1F38101022944D00228C6F86080E7
:100C000004D0FFF755FD044638E034E0FFF750FD0F
:100C1000074604E0FFF74CFDC01B02282BD82868CC
:100C20008001F7D4206AB0F5803F05D16868A168DB
:100C300020F4003008436860D4E90801084369687B
:100C400021F4741108436860C6F86090FFF730FD26
:100C5000044606E025E000BFFFF72AFD001B02283E
:100C600009D828688001F7D51BE000BFFFF720FDF9
:100C7000001B022802D90320BDE8F88F28688001F4
:100C8000F4D40EE00128F7D06868226A00F48031BD
:100C9000914204D1616A00F47010884201D00120B1
:100CA000EAE70020E8E700000010024000004242AE
:100CB000800442420C0000200070004010B5401E2D
:100CC000B0F1807F01D3012010BD4FF0E0246061BE
:100CD0000F21601700F08AFB0020A061072020612F
:100CE000002010BD70477047F8B5016804460868D9
:100CF000CA684B6910F00F0F4FF0000559D003F090
:100D0000010602F49077374365D0C10705D0D105BD
:100D100003D5616C41F001016164410705D5D90734
:100D200003D0616C41F002016164810705D5D907E8
:100D300003D0616C41F004016164010707D502F042
:100D40002001314303D0616C41F008016164616CA2
:100D500000293AD0800604D5900602D5204600F03E
:100D600040FA20684069616CC0F38010090700D424
:100D700060B3204600F00EFA20684069400621D595
:100D80002068143050E8001F21F0400140E80012B4
:100D9000002AF5D1E06BA8B16D494163E06BFFF724
:100DA000DBFA002811D0E06B416B01B0BDE8F040E8
:100DB000084783060FD593060DD52046BDE8F840B9
:100DC00000F00FBA2046FFF78EFFF8BD2046FFF770
:100DD0008AFF6564F8BD266B2023012E7CD1C606F0
:100DE0007AD5D60678D508684868009048694FF0EB
:100DF0000206400640D5E16B086840680004000C1C
:100E0000E8D0A28D8242E5D9E085886920282DD0DE
:100E100020680C3050E8001F21F4807140E8001277
:100E2000002AF5D12068143050E8001F21F001019C
:100E300040E80012002AF5D12068143050E8001F65
:100E400021F0400140E80012002AF5D184F8423038
:100E5000256320680C3050E8001F21F0100140E8A5
:100E60000012002AF5D1E06BFFF752FA6663A08DFD
:100E7000E18D401A81B22AE0A08DE18D401A81B245
:100E8000E08D0028A6D00029A4D022680C3252E8B8
:100E9000000F20F4907042E80007002FF5D1206881
:100EA000143050E8002F22F0010240E80027002F04
:100EB000F5D184F84230256320680C3050E8002FCB
:100EC00022F0100240E80023002BF5D16663204693
:100ED000FFF708FFF8BDFFE705062BD5150629D556
:100EE00094F841002128F5D1A068B0F5805F01D1C8
:100EF0002069B0B1206A411C2162216800784860F5
:100F0000E08C401E0004000CE084E3D12068C1683E
:100F100021F08001C1602068C16841F04001C160DA
:100F2000D8E7206A0088C0F308004860206A801C67
:100F30002062E5E74006CDD55006CBD5CA682046ED
:100F400022F04002CA6084F8413000F09DF8C1E709
:100F50008511000870B5040004D094F84100002504
:100F600010B106E0012070BD84F84050204600F02A
:100F700023F8242084F841002068C16821F400513E
:100F8000C160204600F08EF92068016921F490418B
:100F900001612068416921F02A0141612068C1682E
:100FA00041F40051C1606564202084F8410084F858
:100FB00042006563002070BD30B585B00024009408
:100FC0000194029403940068184988422CD118486F
:100FD000816941F480418161816901F4804104911A
:100FE000816941F0040181618069124D00F00400C3
:100FF00004904FF4007000900220019003200390B1
:1010000069462846FFF752FA2815CDE900046946DB
:1010100028460294FFF74AFA002205212520FFF70F
:10102000AFFB2520FFF79EFB05B030BD0038014027
:10103000001002400008014090F84230202B01D0FF
:101040000220704721B11AB10023036300F086B972
:101050000120704710B50068074988420AD1074847
:10106000806800F08DFDBDE810400122044905486C
:10107000FFF7E2BF10BD0000003801407000002003
:10108000BA120020840000207047FEE72DE9F041ED
:1010900086B0002000900190029003901948816969
:1010A00041F040018161816901F040010491816951
:1010B00041F0080181618069134F00F0080004903D
:1010C000012220213846FFF7EDFADFF840800122A7
:1010D00020214046FFF7E6FA012420250226CDE92B
:1010E0000054CDE9024669463846FFF7DFF9CDE9FD
:1010F0000054CDE9024669464046FFF7D7F906B0ED
:10110000BDE8F0810010024000180140000C0140D1
:10111000FEE7FEE710B5FFF7D1FA02F0F5FA012875
:1011200003D0BDE8104001F05FBF10BD30B58FB0F7
:1011300028216846FFF78BF814210AA8FFF787F8E3
:101140000121080400240491CDE90010CDE9080430
:101150000294022507956846FFF720FC08B172B695
:10116000FEE70F200A90CDE90B540D9400210AA848
:101170000E94FFF737FB002801D072B6FEE70FB0E0
:1011800030BD704710B5406A0021C185C184FFF7AA
:10119000AAFD10BD01680C3151E8002F22F49072B5
:1011A00041E80023002BF5D10168143151E8002FEC
:1011B00022F0010241E80023002BF5D1016B012947
:1011C00009D101680C3151E8002F22F0100241E8EA
:1011D0000023002BF5D1202180F84210002101636B
:1011E000704708B590F84210222901D0022008BDAE
:1011F00082684FF480539A4201D1016921B1816A1A
:101200009A421BD04AB10AE00268816A5268C2F36E
:1012100008020A80816A891C08E0026972B10268CA
:10122000526802F07F020A70816A491C8162C18D96
:10123000491E0904090CC18503D01BE002685268ED
:10124000F1E70168CA6822F02002CA600168CA6832
:1012500022F48072CA6001684A6922F001024A6180
:10126000202180F8421000214163026B012A03D043
:10127000FFF7F0FE002008BD016301680C3151E862
:10128000002F22F0100241E80023002BF5D1016865
:101290000A68D20602D50A6849680091818DFFF775
:1012A00021FDE7E770B5044600680169E26821F4B2
:1012B0004051114301612169A068084361690843F5
:1012C0002168CA6841F20C639A430243CA602068ED
:1012D0004169A26921F44071114341611E492068AE
:1012E000884202D1FFF724FB01E0FFF711FB00EB7E
:1012F000C00101EB0012606864218000B2FBF0F3D2
:10130000B3FBF1F36FF018067343B2FBF0F5B2FBD9
:10131000F0F605EB8305322303EB0515B5FBF1F57C
:10132000B6FBF1F605F0F00505EB0615B2FBF0F69D
:10133000B2FBF0F0B0FBF1F06FF01802504306EB97
:10134000800003EB0010B0FBF1F0216800F00F000B
:101350002844886070BD00000038014081628285A9
:10136000C28500214164222180F84210016921B127
:101370000168CA6842F48072CA6001684A6942F032
:1013800001024A610068C16841F02001C16000208B
:10139000704700000148FFF7A7BC00008400002050
:1013A000FEE700000FB4054B10B503A9044A0298EC
:1013B00000F03CF810BC5DF814FB00009518000824
:1013C000800000200FB4084B10B504A902AA0398AE
:1013D00000F02CF8044602A9002000F0C8F92046CD
:1013E00010BC5DF814FB00006F1700080907090E18
:1013F000002804DB00F1E02080F80014704700F0C2
:101400000F0000F1E02080F8141D704702E008C8CA
:10141000121F08C1002AFAD170477047002001E06E
:1014200001C1121F002AFBD1704700002DE9FF4FB8
:101430008BB088460546002606E025280BD0DDE95E
:101440000D1290476D1C761C28780028F5D10FB03E
:101450003046BDE8F08F0024A146A2460122AE49E5
:1014600000E0044315F8013F203B02FA03F0084274
:10147000F7D128782A2810D06FF02F022878A0F111
:101480003001092915D809EB890102EB410144F02B
:10149000020400EB01096D1CF0E758F8041B5FEA39
:1014A000010903D544F40054C9F1000944F00204D1
:1014B0006D1C28782E2817D115F8010F44F004046C
:1014C0002A280ED06FF02F022878A0F130010929C8
:1014D0000AD80AEB8A0102EB410100EB010A6D1CFC
:1014E000F2E758F804AB6D1C28786C280FD006DCA6
:1014F0004C2817D068280DD06A2814D104E074282D
:1015000010D07A280FD10DE044F400140AE044F41E
:10151000801401E044F440146978814202D104F55A
:1015200080146D1C6D1C2878692865D006DC0028A5
:101530008DD0632827D0642806D15DE06E2808D0BE
:1015400073282AD0752877D0DDE90D129047761CD4
:10155000E0E0C4F30250022809D003280DD0D8F8E7
:10156000001004280DD00E6008F10408D2E0D8F86D
:101570000010F217C1E90062F6E7D8F800100E80FB
:10158000F2E70E70F0E718F8041B8DF80010002049
:101590008DF80100EB46012003E058F804BB4FF042
:1015A000FF3061074FF0000701D40AE07F1C574568
:1015B0000DDA8742FADB1BF807100029F6D106E0A6
:1015C0007F1C8742FCDB1BF807100029F8D1DDE9FE
:1015D0000D23A9EB07008146214600F0B1F8304405
:1015E000C61904E0DDE90D121BF8010B90477F1EC0
:1015F000F8D22146484688E058F8040BC4F302515B
:101600004FF00A0B032900D100B2042900D140B2E7
:10161000002802DA40422D2102E0210505D52B21C8
:101620008DF82410012104E006E0E10710D020210C
:10163000F6E708AF089113E058F8040BC4F3025121
:101640004FF00A0B032900D180B2042900D1C0B2A7
:101650000021EEE75946FEF730FE303107F8011D54
:101660000028F7D1ADEB070000F1200B600702D591
:1016700024F4803401E04FF0010ADA4502DDAAEBE0
:101680000B0000E00020824600EB0B0108980144AB
:10169000A9EB01000A90E00306D4DDE90D23214601
:1016A0000A9800F04DF806444FF0000908E009A937
:1016B00011F80900DDE90D12904709F10109761CC6
:1016C00008998945F3DBE0030CD5DDE90D232146BC
:1016D0000A9800F035F8064404E0DDE90D123020E8
:1016E0009047761CBAF10001AAF1010AF5DC05E089
:1016F000DDE90D1217F8010B9047761CBBF10001D4
:10170000ABF1010BF4DC0A982146DDE90D2300F072
:1017100005F806446D1C97E6092801002DE9F04103
:10172000044600251E461746880404D405E03946C1
:101730002020B0476D1C641EF9D52846BDE8F08115
:101740002DE9F041044600251E469046C80301D508
:10175000302700E02027880404D505E041463846BC
:10176000B0476D1C641EF9D52846BDE8F0810A68B3
:10177000531C0B60107070472DE9F04F89B09246F2
:101780008B460646002401E0641CE4B2305D20284C
:1017900003D0092801D05C45F6D34FF0FF3874B36D
:1017A000184F04F106093D6811E0062216A12868C9
:1017B000FEF774FD50B9286822463146801DFEF7B9
:1017C0006DFD18B9296811F8090020B10C35786849
:1017D0008542EAD314E0AC688CB120216846FEF75C
:1017E00036FD6A465946304602F08EF938B16946F0
:1017F000A047CAF80000002009B0BDE8F08FFFE75D
:101800004046F9E7700000205F5F636D645F000091
:1018100070B5040005D0164E3068844209D100200E
:1018200070BD502080F31188BFF34F8FBFF36F8FCF
:10183000FEE701F0CFF8656901F0ECF870688542C9
:1018400002D0B068854201D1022070BD09488542AE
:1018500004D1A06A0028F7D1032070BD05481438D0
:10186000854202D00DB1012070BD042070BD000082
:1018700010000020BC04002005490C30496800E03D
:10188000001D0268002A01D18842F9D37047000088
:101890007000002004490A685206FCD5024AC1B211
:1018A000121D1160704700000038014001A0FFF7D1
:1018B00079BD00005A4E532069732073686F7274AB
:1018C00020666F72205A4E275368656C6C21210D7B
:1018D0000A00000070B50FA0FFF764FD1248134D19
:1018E00004680FE0062212A12068FEF7D7FC28B991
:1018F000D4E9001210A0891DFFF754FD2046FFF720
:10190000BBFF044628688442ECD30FA0FFF74AFDD2
:10191000002070BD7368656C6C20636F6D6D616EC7
:1019200064733A0D0A00000070000020740000206B
:101930005F5F636D645F0000252D313673202D20BD
:1019400025730D0A000000000D0A00002DE9F0418A
:1019500017A0FFF727FD00251FA0FFF723FD2D4847
:10196000FFF720FD2CA0FFF71DFD354F4FF000467F
:1019700034A0FFF717FD002457F8250026FA04F1DC
:10198000084201D034A000E035A0FFF70BFD641C35
:10199000E4B2202CF0D30FA0FFF704FD6D1CEDB2D4
:1019A000192DE5D319A0FFF7FDFC0020BDE8F0815B
:1019B0004920616D205A4E275348454C4C202843FE
:1019C0004C49292C4865726527732041424F555474
:1019D000204D45210D0A0000E6ADA4E4BA8CE7BB1A
:1019E000B4E7A081E4BDBFE794A8E4BA86E6B4BB3F
:1019F000E7A081E68A80E69CAFEFBC8CE8AFB7E653
:101A000094BEE5BF83E689ABE7A081210D0A0D0AEC
:101A100000000000083D00087777772E7A6E6D632E
:101A2000752E636F6D2020207777772E706E787516
:101A30006574616E672E636F6D0D0A0D0A0D0A00E5
:101A4000D83B0008202020202020202020202020FB
:101A50002020202000000000E296842000000000EA
:101A600020200000EFF30580002800D001207047FF
:101A70000EB5FEF72BFEFFF759FBFFF707FB1248E9
:101A800010490C2201604FF4E13141600021816076
:101A9000C160C0E904128161C161FFF75BFA08B15E
:101AA00072B6FEE700F0ECFD02A90F20CDE90001BF
:101AB0000023802205A10A4801F08AFD01F0C8F93F
:101AC000FEE7000000380140840000207461736B61
:101AD0005F6372656174655F7461736B0000000021
:101AE0006D27000801460020842900D0C81C7047DB
:101AF00010B500F06FFF01F01DFA044601F014FA72
:101B00000146224603A0FFF74DFCBDE8104000F05F
:101B100081BF0000467265654865617053697A65EA
:101B2000203D20256420202045766572467265653B
:101B30004865617053697A65203D2025640D0A006F
:101B400038B543684BB1012909D103200022009028
:101B50001146012001F082FA38BD012901D0002090
:101B600038BD03220021012001F054FA040004D002
:101B700000231A46194601F0E9FA204638BD000054
:101B800038B5002405460094FFF76CFF90B1694614
:101B9000284601F08BFB012801D0FF2038BD0098BA
:101BA00088B10A494FF080500860BFF34F8FBFF3F0
:101BB0006F8F08E000231A461946284601F0C6FA3E
:101BC000012800D0FF24204638BD000004ED00E0CD
:101BD00038B505004FF0000000900FD00024481CDD
:101BE0000ED001B10C46FFF73DFFB8B16A460021A7
:101BF000284601F0A9FB012816D104E0802038BD59
:101C00004FF0FF34EFE7009880B109494FF0805062
:101C10000860BFF34F8FBFF36F8F07E02146284660
:101C200001F0E0FB012801D0FF2038BD002038BDC5
:101C300004ED00E07FB50D4604464169B0F90800A7
:101C400081B1A16971B1FFF74DFFD4E905128DE8AB
:101C50000700D4E900102B46226901F0E6FC03904E
:101C600004B070BDFFF73EFF03A9CDE90001208A53
:101C70002B4682B2D4E9001001F0AAFC012801D061
:101C80000020EDE70398EBE74FF47A7403A0FFF729
:101C900089FB204600F03CFFF8E700007072696E97
:101CA000745F737472696E675F7461736B206973BC
:101CB0002072756E6E696E672E2E2E0D0A00000062
:101CC0002DE9F041184C0F46054666692068001D55
:101CD00000F0DAFD38B9206890F82C100120884017
:101CE000A1698143A161681C07D137B12168BDE8B2
:101CF000F0410E48091D00F061BE20683544B54230
:101D00004560216805D2A068BDE8F041091D00F0DA
:101D10003DBE6068091D00F039FE206B854200D28F
:101D20002563BDE8F081000010000020BC04002005
:101D30002DE9F041054600F04DFE2D4C2069401C78
:101D4000206120682B4F10B1E06930B32BE0256093
:101D50002069012827D1002606EB860007EB8000CA
:101D600000F006FE761C102EF6D3234800F000FE8D
:101D70002148143000F0FCFD1F48283000F0F8FD29
:101D80001D483C3000F0F4FD1B48503000F0F0FDE1
:101D9000194860601430A06005E02068E96AC06AF4
:101DA000884200D82560E06A401CE062A864E96AC5
:101DB0000120A26988401043A06101EB810007EB7C
:101DC0008000291D00F0FAFD00F024FEE0690028E3
:101DD0000CD02068E96AC06A884207D207494FF0F0
:101DE00080500860BFF34F8FBFF36F8FBDE8F08165
:101DF000100000202C0300206C04002004ED00E003
:101E000030B4026C0B46002A0BD0C1681144C1608B
:101E10004468A14201D30168C16030BC1846FEF796
:101E2000EFB930BC70472DE9F041856B1746044689
:101E30000026026C82B1C7B1E068FEF7E1F9E16803
:101E4000206C091AE1602268914202D26168081A86
:101E5000E060022F16D017E02068A8B9606801F092
:101E6000CBFC0646002060600EE0A068FEF7C8F9D3
:101E7000216CA0680844A0606168884204D320688F
:101E8000A06001E005B16D1E6D1CA5633046BDE884
:101E9000F08110B5044690F85D0058B101280CD0CF
:101EA00002280FD0502080F31188BFF34F8FBFF36B
:101EB0006F8FFEE7206B00F0C1FD2046BDE81040AB
:101EC00000F0BCBD10BD000010484FF44061420757
:101ED00006D0C01D0D4920F00700411AC1F5406130
:101EE0000B4A00230144C2E900030839103A21F0EB
:101EF000070111604B600B600B1AC0E9001393607F
:101F00004FF000405360D06070470000D0040020C4
:101F10005C000020144E154CA6F5BE774FF080589B
:101F2000DFF84C9012E000BF00F054FDF068C56887
:101F3000281D00F0A9FC2069401E2061E068401EB9
:101F4000E06000F067FD2846FFF7A3FFE068002887
:101F5000EAD138680128F9D9C9F80080BFF34F8F5A
:101F6000BFF36F8FF2E70000A804002010000020EC
:101F700004ED00E070B51D46049C51B1C4F800208A
:101F8000C4E90F010121204601F09CF884F84C506F
:101F900070BD2460F4E72DE9F0470E46DDE90984C1
:101FA0001746824691009946089DA522206BFEF7B0
:101FB00047F96FF00301206B01EB8701084420F023
:101FC0000707780707D0502080F31188BFF34F8FA1
:101FD000BFF36F8FFEE72218315C82F83410315C5A
:101FE00011B1401C1428F6D3002684F84760102D48
:101FF00000D30F25E562C4E91456201D00F0C3FC90
:1020000004F1180000F0BFFC2461C5F11000646207
:10201000A061A66584F85C604A465146384600F0E7
:10202000C5F92060B8F1000F01D0C8F80040BDE844
:10203000F087000030B5114900E011460A6882427D
:10204000FBD34B685C18844203D140681844486055
:10205000084643681C18944209D1084C103C246877
:10206000A24209D052681A4442600A6812680260AB
:10207000814200D0086030BD0460F9E75C000020B8
:1020800010B5044600F0A6FCA06B28B15FF0000478
:1020900000F0C0FC204610BD0124F9E72DE9F0470F
:1020A0008146086892460C46002600B3606804F139
:1020B000080540686060A84201D1416861606068BD
:1020C000D0F80C80606840686060A84201D1416827
:1020D0006160606806EBC60109EB8101C768534681
:1020E0000122384600F090FD761C4745EAD1304683
:1020F000BDE8F08706484168096829B14168C968A8
:10210000C9684968016370474FF0FF31FAE7000082
:1021100010000020F0B5026800240AB3426800F104
:10212000080552684260AA4201D153684360426880
:10213000D668426852684260AA4201D1536843603F
:1021400042680023D26811F803C0D71897F834709A
:10215000BC4503D137B15B1C142BF4D3B242E8D198
:102160002046F0BD141EFBD1F8E700000848406887
:10217000401C4FF0500080F3118804D0BFF34F8F04
:10218000BFF36F8FFEE7BFF34F8FBFF36F8FFEE795
:10219000640000202DE9F041044600F01BFC94F996
:1021A000455004F1240609E0606A48B1304601F068
:1021B000B9FB08B100F0DAFD6D1E6DB2002DF3DC45
:1021C0004FF0FF3684F8456000F024FC00F002FC7C
:1021D00094F9445004F1100709E0206948B13846E9
:1021E00001F0A0FB08B100F0C1FD6D1E6DB2002D25
:1021F000F3DC84F84460BDE8F04100F00BBC000063
:1022000000B58FB010A001F03BFA0523012205A90B
:1022100000F0FAFC00F0DEFB01F084FADDE90A23AD
:10222000BDF83410CDE90310CDE901230998DDE9AB
:10223000061200909DF820300848FFF7B3F800F030
:10224000E9FB0FB000BD000074776F5F6C65645FE1
:10225000746F67676C655F7461736B00A83D0008FD
:1022600000B5B3B0684600F017FD00F0B3FB694657
:1022700003A0FFF797F800F0CDFB33B000BD0000DE
:102280005461736B4E616D6520202020202020203A
:102290002020202020205374617465205072696FC3
:1022A000726974792020537461636B20204E756DC0
:1022B000626572200D0A25730D0A00002DE9F041B8
:1022C0000546002700F0FAFD314E306808B9FFF7E7
:1022D000FBFDF06805424BD1C5B3083568070ED049
:1022E00005F00700C0F108000544680707D050203A
:1022F00080F31188BFF34F8FBFF36F8FFEE72DB3CD
:102300007068854234D82248103001460C6801E0DC
:1023100020460C466168A94202D221680029F7D103
:1023200031688C4224D007682168016060680837F2
:10233000411B10290FD96019420708D0502080F3A3
:102340001188BFF34F8FBFF36F8FFEE710E041603E
:102350006560FFF76FFE61687068401A7060B26870
:10236000904200D2B060F06801430020C4E900014F
:1023700001F014FB780707D0502080F31188BFF3D9
:102380004F8FBFF36F8FFEE73846BDE8F081000046
:102390004C0000200449086818B10868426D521CBE
:1023A00042650868704700001000002010B5031F48
:1023B0004FF080741C601B1F21F001011960191F70
:1023C000024B0B60143940380A6010BD6D210008C3
:1023D00008B5844C824F4FF0FF3B04F1020A4FF0E6
:1023E0000009661C5946B868FFF7F2FB94F8EA0149
:1023F0001B2805D02178012904D002290AD013E036
:10240000012005E05B2802D084F800900CE0022057
:102410002070E7E784F80090412832D0422832D07B
:10242000442834D0432834D00028DBD0FF28D9D02A
:10243000092830D07F284DD008284BD00D287ED0D9
:102440000A287CD0B4F85210502902D34946A4F887
:102450005290B4F8543089B28B4267D2CA1A991993
:1024600003EB0A00FDF7CCFE94F8EA0134F8541FA0
:102470008855208881195CA0FEF794FF34F85459E0
:102480008DE05AA000E05DA0FEF78CFFAAE75FA0F8
:10249000FAE762A0F8E70025A04603E064A0FEF793
:1024A00081FF6D1CB8F85400A842F7DC08F1010563
:1024B00060A0FEF777FF284601F0D2FA29465EA019
:1024C000FEF770FF2846FDF7D9FEA8F85200A8F8DD
:1024D000540087E7B4F85410002983D0B4F85200B0
:1024E000491E401E80B28BB2A4F85200A4F85430AA
:1024F00098421CD9C21A03EB0A019819FDF780FE15
:1025000034F8521F01F80690608881194CA0FEF73C
:1025100049FF6588523C03E045A0FEF743FF6D1C70
:10252000B4F85200A842B1DBF6E708E03CE046A070
:10253000FEF738FFB4F8521001F8069052E73DA0BC
:10254000FEF730FF94F85200651C10F0FF0116D022
:1025500004E0491E6D1C11F0FF0104D028782028EA
:10256000F7D00928F5D06A462846FFF705F930B1BB
:10257000294636A0FEF716FF37A0FEF713FF3CA052
:10258000FEF710FF5121601CFDF761FEA4F8529088
:10259000A4F8549026E726A0FEF704FF6D1CB4F8BB
:1025A0005200A842F7DC05E0885594F8EA1133A000
:1025B000FEF7F8FE84F8EA91B4F852004946401C50
:1025C00080B2A4F85200B4F85420521CA4F854204D
:1025D0005028B3D3A4F85210A4F8541002E7000016
:1025E00070000020D0100020257300007265637613
:1025F000207570206B65790D0A00000072656376A6
:1026000020646F776E206B65790D0A0072656376C2
:10261000206C656674206B65790D0A0072656376BF
:10262000207269676874206B65790D0A00000000EC
:10263000080000000D0A00007A6E73203E2573002A
:10264000082573202008000008200800636D643A04
:1026500025730D0A00000000636F6D6D616E6420CC
:102660006E6F7420666F756E642E2E2E0D0A00003C
:102670007A6E277368656C6C5C3E00002563000011
:1026800010B58AB04FF4FA50FDF7FEFE00F02EF8B8
:102690000F480021114C01700F4A0E48C4E9000296
:1026A00007910891012107A8FFF74AFAA0601C22B0
:1026B0000B496846FDF7A4FD00216846FFF7BAFA0A
:1026C000E060012207490848FEF7B6FC0AB010BDD9
:1026D000D0100020083F0008503F00087000002084
:1026E000EC3C0008BA120020840000202DE9F047DD
:1026F000DFF8589000264FF0800815A0FEF752FE34
:102700000024002509EB041728FA05F0B95D014201
:1027100005D010A0015D12A0FEF744FE02E00CA05F
:10272000FEF740FE6D1CEDB2082DEDD3641CE4B243
:102730000B2CE6D30BA0FEF735FE761CF6B2102E5E
:10274000DBD3BDE8F0470848FEF72CBE3C3C000850
:10275000200000005A4E275368656C6C0000000092
:1027600025630000200D0A00583D00081FB54FF4F6
:10277000FA5000F0CDF911A0FEF714FE15A0FEF7F7
:1027800011FE02A90B20CDE900010023802216A131
:102790001A4800F01DFF1AA0FEF704FE03A90A2044
:1027A000CDE90001002380221AA11F4800F010FF8C
:1027B0001EA000F065FF00F0D1F91FBD73746172B7
:1027C0007420746F20637265617465207461736B2B
:1027D000730D0A006372656174652031737420742F
:1027E00061736B0D0A00000074776F5F6C65645F46
:1027F000746F67676C655F7461736B0041280008D4
:1028000063726561746520326E64207461736B0D50
:102810000A0000007072696E745F737472696E678B
:102820005F7461736B000000891C000872756E6F25
:102830006E63655F656E7472795F7461736B0000BF
:102840000F4E104C4FF47A75012220213046FDF7CF
:1028500029FF012220212046FDF724FF284600F011
:1028600057F9002220213046FDF71CFF00222021CD
:102870002046FDF717FF284600F04AF9E4E700007C
:10288000000C014000180140D0E9013201699A6052
:10289000D0E901235A604A68824201D182684A60C5
:1028A000002202610868401E086008687047000046
:1028B0002DE9F04717460A4605460024102600F089
:1028C000FDFADFF88C80D8F8100082423AD3DFF8A6
:1028D0008490761E06EB860104EBC40009EB8101AF
:1028E00005EB80000122FFF7D9FB0444002EF0D154
:1028F00004EBC40005EB800002224646D8F8041021
:10290000FFF7CCFB044404EBC40005EB800002227B
:10291000B168FFF7C3FB044404EBC40005EB80007F
:1029200004220D49FFF7BAFB04440B4904EBC40031
:1029300005EB800003221431FFF7B0FB04440FB114
:102940000020386001F02AF82046BDE8F08700003A
:10295000100000202C030020A8040020034B03607B
:1029600003F160000860802010607047CC000020F8
:1029700000F108014FF0FF32C0E90112C1600161AE
:1029800000210160704700210161704730B50B687C
:102990005A1C02D000F1080202E0026904E022465B
:1029A000546825689D42FAD953684B6099608A60E3
:1029B000516008610168491C016030BD42684A608D
:1029C00093688B6093685960916008610168491C45
:1029D00001607047502080F31188BFF34F8FBFF321
:1029E0006F8F0A494868401C486001280CD108488C
:1029F000006810F0FF0F07D0502080F31188BFF35C
:102A00004F8FBFF36F8FFEE7704700006400002018
:102A100004ED00E00849486828B1401E486001D133
:102A200080F311887047502080F31188BFF34F8FD7
:102A3000BFF36F8FFEE700006400002070B5002830
:102A400027D0144DA0F108046168E868014207D15D
:102A5000502080F31188BFF34F8FBFF36F8FFEE7D5
:102A600022683AB1502080F31188BFF34F8FBFF333
:102A70006F8FFEE78143616000F020FA606869684B
:102A8000084468602046FFF7D5FABDE8704000F0C2
:102A900085BF70BD4C0000204FF0E0200021016197
:102AA000816105494FF47A720968B1FBF2F1491E60
:102AB00041610721016170470C00002010B5FDF74E
:102AC00089FB114910280ED300F1E02090F8F003A3
:102AD0000A78904207D2502080F31188BFF34F8FBD
:102AE000BFF36F8FFEE709480068896800F4E06073
:102AF000884207D9502080F31188BFF34F8FBFF36E
:102B00006F8FFEE710BD0000640000200CED00E0B8
:102B100010B5020014D00F48806B38B1502080F3FC
:102B20001188BFF34F8FBFF36F8FFEE700F0C6F938
:102B300000211046FFF7C4F800F030FF002807D14D
:102B400005494FF080500860BFF34F8FBFF36F8F80
:102B500010BD00001000002004ED00E070B5054637
:102B6000FFF738FF244C05B92568281DFFF78CFEB8
:102B700058B9E86A214A00EB800152F8211021B9C6
:102B800001218140A0698843A061A86A18B105F1BC
:102B90001800FFF779FEE06A401CE0622068854279
:102BA00007D1291D1648FFF709FFE068401CE060C7
:102BB00007E02069401E20612846FFF76AF9FFF709
:102BC00099FAFFF727FFE069002814D020688542B2
:102BD00011D1A06B38B1502080F31188BFF34F8F13
:102BE000BFF36F8FFEE707494FF080500860BFF3D7
:102BF0004F8FBFF36F8F70BD100000202C0300209B
:102C0000A804002004ED00E02DE9F0410C461D4928
:102C10001646B0B14FEA000505F13400C4E9005092
:102C2000E86A2061286BE061A86CA0600027286D2D
:102C3000C4E90507052B12D00868854203D1277324
:102C400011E00D68E8E72373032B0CD100F036F98F
:102C5000A86A08B10220207300F0A0FE03E0284615
:102C6000FEF7D6FD20735EB10021286B01E0401C09
:102C7000491C0278A52AFAD088082084BDE8F08192
:102C80002784FBE71000002002498A6A0260496934
:102C90004160704710000020F0B587B0002704465F
:102CA00007702D4801690291006900EBC0008000A7
:102CB000FFF704FB06004CD000220299FFF7F8FD55
:102CC0000290049738463BE000EBC00006EB800022
:102CD000017B05290ED2DFE801F0030507090B008F
:102CE000582508E0522506E0422504E0532502E07D
:102CF000442500E0002541682046FDF7C6FA20463D
:102D0000FDF7BCFA202101E02154401C1328FBD31D
:102D100027540444049800EBC00006EB800082684E
:102D2000018CCDE9001203692A460CA12046FEF76A
:102D300049FB2046FDF7A2FA04440498401C049085
:102D400002998842C0D307B03046BDE8F040FFF793
:102D500075BE07B0F0BD0000100000200925630912
:102D600025750925750925750D0A00000149012001
:102D7000486270471000002010B50C4650B1094958
:102D800009681831FFF702FE2046BDE81040012116
:102D9000FEF796BF502080F31188BFF34F8FBFF32B
:102DA0006F8FFEE71000002070B504004BD0626DFD
:102DB000A2B1206D884200D30146E06A884242D029
:102DC000012A40D1204D2A6894420FD1502080F32F
:102DD0001188BFF34F8FBFF36F8FFEE7502080F352
:102DE0001188BFF34F8FBFF36F8FFEE7E162A269D7
:102DF000002A02DBC1F11001A161144E00EB80003A
:102E0000616906EB800081421DD1201DFFF73CFD6A
:102E1000012150B9E06A00EB800256F8222022B965
:102E2000AA6901FA00F08243AA61E06AAA698140B6
:102E30001143A96100EB800006EB8000211DBDE875
:102E40007040FFF7BBBD70BD100000202C030020B8
:102E500010B586B00024039405AA04A903A804941D
:102E6000FFF77CFDDDE903010094CDE901100023AB
:102E70000EA11048059A00F0D8FB0F4900284863BE
:102E800011D0502080F31188BFF34F8FBFF36F8FA5
:102E90004FF0FF3008630120C8614C6106B0BDE807
:102EA000104000F04DB806B010BD000049444C453C
:102EB00000000000151F0008100000200248816B70
:102EC000491C816370470000100000201448816B8A
:102ED00011B1012141627047002141628169B1FA5B
:102EE00081F1C1F11F0101EB81020E4951F822303D
:102EF0006BB101EB820101F108034A6852684A6034
:102F00009A4201D152684A60D168016070475020EE
:102F100080F31188BFF34F8FBFF36F8FFEE7000080
:102F2000100000202C03002001484068704700007A
:102F30004C00002001488068704700004C000020D1
:102F40001CB5264908780190FF20087008788DF894
:102F500000009DF800009DF8002000F0F000904275
:102F600007D0502080F31188BFF34F8FBFF36F8FCE
:102F7000FEE79DF800001A4B00F050001870072083
:102F8000986005E09DF8002052008DF80020401E5A
:102F90009DF800201206F5D49860032807D0502031
:102FA00080F31188BFF34F8FBFF36F8FFEE74FF4AD
:102FB00040709860019808700A48016841F47001F7
:102FC0000160016841F070410160FFF765FD00207C
:102FD0005860FDF7C9F800201CBD000000E400E0C7
:102FE0006400002020ED00E010B5502080F311882F
:102FF000BFF34F8FBFF36F8F00F09AFB18B10449F6
:103000004FF080500860002080F3118810BD000050
:1030100004ED00E0F8B517460E46050014D0DEB109
:1030200005FB06F05030FFF749F904000AD00020F4
:1030300084F8460004F150023B463146284600948D
:10304000FEF798FF2046F8BD502080F31188BFF3AB
:103050004F8FBFF36F8FFEE70020E3E738B5049D85
:1030600018B153B1CAB181B120E0502080F311886A
:10307000BFF34F8FBFF36F8FFEE7502080F31188AF
:10308000BFF34F8FBFF36F8FFEE7502080F311889F
:10309000BFF34F8FBFF36F8FFEE739B1502080F33E
:1030A0001188BFF34F8FBFF36F8FFEE750241C468C
:1030B000012384F846302B460094FEF75BFF204640
:1030C00038BD000070B50D46040025D0FFF782FC26
:1030D000D4E90F20216802FB001161600021A16387
:1030E0002168A1600A46D4E90F01401E00FB0121BE
:1030F000E16021464FF0FF3001F8440F487004F1C1
:1031000010008DB1FFF734FC04F12400FFF730FC10
:10311000FFF780FC012070BD502080F31188BFF3C1
:103120004F8FBFF36F8FFEE721690029F0D000F0C9
:10313000F9FB0028ECD004494FF080500860BFF341
:103140004F8FBFF36F8FE3E704ED00E02DE9FF47FA
:1031500082B01D468A464FF00008040003D0BAF141
:10316000000F08D011E0502080F31188BFF34F8F7B
:10317000BFF36F8FFEE7206C38B1502080F31188C9
:10318000BFF34F8FBFF36F8FFEE7022D0AD1E06BC5
:10319000012807D0502080F31188BFF34F8FBFF371
:1031A0006F8FFEE700F0B0FA3F4F4FF000094FF08D
:1031B000805648B9049838B1502080F31188BFF385
:1031C0004F8FBFF36F8FFEE7FFF704FCA06BE16B3F
:1031D000884207D3022D05D00498D0B1B8F1000F72
:1031E0001AD01EE02A4651462046FEF71CFE616AB0
:1031F00019B104F1240000F095FB20B13E60BFF34B
:103200004F8FBFF36F8FFFF705FC012006B0BDE8BD
:10321000F087FFF7FFFB22E06846FFF735FD4FF030
:103220000108FFF7F7FBFFF749FEFFF7D3FB94F91F
:103230004400401C01D184F8449094F94500401C9E
:1032400001D184F84590FFF7E5FB04A9684600F03A
:1032500085F930B12046FEF79DFF00F09FFB00206E
:10326000D4E7FFF7B7FBA06BE16B884213D1FFF700
:10327000D1FB04F110000499FFF77EFD2046FEF714
:1032800089FF00F08BFB00289ED13E60BFF34F8F7B
:10329000BFF36F8F98E7FFF7BDFB2046FEF77AFF7D
:1032A00000F07CFB90E7000004ED00E070B50E46F6
:1032B000040009D0206C78B1502080F31188BFF34E
:1032C0004F8FBFF36F8FFEE7502080F31188BFF35D
:1032D0004F8FBFF36F8FFEE7206848B9606838B141
:1032E000502080F31188BFF34F8FBFF36F8FFEE73D
:1032F000FFF7E4FB5020EFF3118580F31188BFF353
:103300004F8FBFF36F8FA16BE06B884218D994F990
:103310004500491CA163411C04D0401C84F84500B1
:1033200001200EE0606A0028FAD004F1240000F0C9
:10333000F9FA0028F4D0002EF2D001203060EFE737
:10334000002085F3118870BD2DE9F047904689462D
:10335000040003D0B9F1000F08D011E0502080F331
:103360001188BFF34F8FBFF36F8FFEE7206C38B12A
:10337000502080F31188BFF34F8FBFF36F8FFEE7AC
:10338000FFF79CFB5020EFF3118680F31188BFF309
:103390004F8FBFF36F8FA76BF7B194F94450494635
:1033A0002046FEF72DFD7F1EA763681C04D06D1C10
:1033B00084F84450012010E020690028FAD004F17C
:1033C000100000F0AFFA0028F4D0B8F1000FF1D0EF
:1033D0000121C8F80010EDE7002086F31188BDE850
:1033E000F08700002DE9F343002683B00400354642
:1033F00009D0206C78B1502080F31188BFF34F8F33
:10340000BFF36F8FFEE7502080F31188BFF34F8F1B
:10341000BFF36F8FFEE700F077F9DFF83C814FF0E4
:1034200000094FF0805748B9049838B1502080F314
:103430001188BFF34F8FBFF36F8FFEE7FFF7CAFA14
:10344000A06BC8B1401EA063206810B9FEF7A2FFB0
:103450006060206950B104F1100000F063FA28B1F7
:10346000C8F80070BFF34F8FBFF36F8FFFF7D2FA2A
:10347000012005B0BDE8F083049808B166B10FE003
:103480003DB1502080F31188BFF34F8FBFF36F8F92
:10349000FEE7FFF7BFFA5DE06846FFF7F5FB0126A0
:1034A000FFF7B8FAFFF70AFDFFF794FA94F9440022
:1034B000401C01D184F8449094F94500401C01D18E
:1034C00084F84590FFF7A6FA04A9684600F046F88C
:1034D0000028204612D0FEF75DFE00F05FFA20467D
:1034E000FEF7CEFD0028A9D09DB3FFF773FA606AFE
:1034F00050B3206B0068C0F1100126E0FEF7C0FD5C
:10350000E0B1206838B9FFF765FA606800F0C0F9EB
:103510000546FFF77FFA04F124000499FFF72CFC1D
:103520002046FEF737FE00F039FA002886D1C8F8A9
:103530000070BFF34F8FBFF36F8F7FE72046FEF71A
:1035400029FE00F02BFA79E700216068FFF72CFCD8
:103550009FE7FFE700208CE704ED00E02DE9F04154
:103560000C46050011D0C4B1FFF734FA174B5A6965
:103570006E682068911B471C17D02F689B6A9F427A
:1035800019D0964217D8012410E0502080F31188FA
:10359000BFF34F8FBFF36F8FFEE7502080F311888A
:1035A000BFF34F8FBFF36F8FFEE70024FFF732FAB0
:1035B0002046BDE8F081884205D9401A206028469F
:1035C000FFF762FBF1E700202060DCE7100000203D
:1035D0002DE9FF5F8346DDE90E87994616468A4648
:1035E0009000FEF76BFE05001CD06020FEF766FE23
:1035F000040014D00020256384F85D00CDE902406A
:10360000CDE900874B46324651465846FEF7C3FC8B
:103610002046FEF78DFB012004B0BDE8F09F284650
:10362000FFF70CFA4FF0FF30F6E7F0B585B0DDE9B3
:103630000B640A9DA6B1DCB16027009726630226C1
:1036400084F85D60002604AFCDE90246CDE900575D
:10365000FEF7A1FC2046FEF76BFB049805B0F0BD19
:10366000502080F31188BFF34F8FBFF36F8FFEE7B9
:10367000502080F31188BFF34F8FBFF36F8FFEE7A9
:103680002DE9F04107461025FCF7F8FD142807D373
:10369000502080F31188BFF34F8FBFF36F8FFEE789
:1036A000FFF70CFC154E6D1E05EB850006EB800048
:1036B0003946FEF72FFD04001AD1002DF3D1104D2D
:1036C00039466868FEF726FD040011D13946A8681E
:1036D000FEF720FD04000BD139460A48FEF71AFD1B
:1036E000040005D1074839461438FEF713FD044697
:1036F00000F054F92046BDE8F08100002C030020C2
:1037000010000020BC0400200548C16919B1806B7D
:1037100018B1002070470120704702207047000058
:103720001000002001484069704700001000002090
:103730002DE9F0412E4C0027A06B40B1206A401CBF
:103740002062606A00B101273846BDE8F0816669F1
:10375000761C666113D16068006838B1502080F330
:103760001188BFF34F8FBFF36F8FFEE76068A168CA
:103770006160A060A06A401CA062FEF7BBFC206BE9
:10378000DFF87080864209D36068006880B16068A5
:10379000C068C568686886420DD220632068C06A28
:1037A00000EB800158F821000128CAD90127C8E799
:1037B0004FF0FF30F1E7281DFFF766F8A86A18B14F
:1037C00005F11800FFF760F8E86A0121A26981405D
:1037D0001143A16100EB800108EB8100291DFFF777
:1037E000EDF8E86A2168C96A8842CDD30127CBE7A2
:1037F000100000202C03002070B504004FF00001E1
:1038000040D0214D2868844207D0502080F3118891
:10381000BFF34F8FBFF36F8FFEE7606D38B1401E6F
:103820006065236DE26A9A422CD040B12AE05020B4
:1038300080F31188BFF34F8FBFF36F8FFEE7201D1A
:10384000FFF722F8114A012150B9E06A00EB80032A
:1038500052F8233023B9AB6901FA00F08343AB611E
:10386000206DE062C0F11000A061E06AAB698140A8
:103870001943A96100EB800002EB8000211DFFF7D6
:103880009DF80121084670BD100000202C03002087
:1038900070B504004FF0000038D0204DE16A2A686E
:1038A000D26A914233D2A069002804DB2868C06A3A
:1038B000C0F11000A0611A4E01EB8101606906EBB6
:1038C000810188421ED1201DFEF7DEFF012150B983
:1038D000E06A00EB800256F8222022B9AA6901FAB8
:1038E00000F08243AA612868C06AE062AA69814048
:1038F0001143A96100EB800006EB8000211DFFF75A
:103900005DF802E02868C06AE062012070BD216DA8
:103910002A68D26A9142F8D370BD000010000020DE
:103920002C0300202DE9F041C068C468ACB104F15B
:1039300018000746FEF7A8FF154DA86B0126A0B199
:1039400039461448FFF73AF8E06A2968C96A88429C
:103950001BD901206E62BDE8F081502080F31188F0
:10396000BFF34F8FBFF36F8FFEE7201DFEF78CFF75
:10397000E16AAA6906FA01F01043A86101EB81002F
:10398000054901EB8000211DDCE70020E3E7000092
:1039900010000020940400202C0300202DE9F047A3
:1039A0002C4D00242746A86B38B1FFF713F8A86BFD
:1039B000401EA863A86B40B146E0502080F31188F8
:1039C000BFF34F8FBFF36F8FFEE72969224E0120AF
:1039D000D1B3A6F5B47980463068E8B1F068C46820
:1039E00004F11800FEF750FF201DFEF74DFFE06ABE
:1039F000AA6908FA00F11143A96100EB800109EB03
:103A00008100211DFEF7DAFFE06A2968C96A884251
:103A1000E2D3C5F82480DFE70CB1FEF76BFB2C6A1C
:103A200044B14646FFF784FE00B16E62641EF9D1D0
:103A300000202862686A38B1084901273807086001
:103A4000BFF34F8FBFF36F8FFEF7E4FF3846BDE83B
:103A5000F0870000100000209404002004ED00E036
:103A60002DE9F0478046002500782C4610B1234F01
:103A70003E6834E0BDE8F04700210846FDF72ABF64
:103A800006221F493068FCF709FC20BB306800F1B2
:103A900006094046FCF7F2FB024649464046FCF761
:103AA000FDFBC0B925B94C464846FCF7E7FB054687
:103AB0004946204601E0401C491C02781AB10B78A7
:103AC0000BB19A42F7D0001BA84200DA05464946DE
:103AD0000C48FDF767FC3046FDF7CEFE06467868D9
:103AE0008642CDD3002C06D02A4621464046BDE86A
:103AF000F047FCF7B7BBBDE8F0870000700000207E
:103B0000081800085026000870B500231C461D4602
:103B100049E000BF5B1C00F8015BDBB20678202E99
:103B200001D0092E01D18B42F4D3082C06D30020FA
:103B300001E0401CC0B2A042FBD336E08B4234D23D
:103B4000F6B2222E04D042F82400641CE4B221E034
:103B50005B1C401C42F82400641CDBB2E4B20AE0A7
:103B60005C2E05D14678222E02D15B1CDBB2401CB4
:103B70005B1CDBB2401C0678222E01D08B42EFD3B7
:103B80008B4212D25B1C00F8015BDBB20BE05B1CCA
:103B9000DBB2401C0678202E03D0092E01D08B42C8
:103BA000F5D38B4201D28B42B8D3204670BD0102BF
:103BB00002030405060708090A0B0C0D0E0F10106E
:103BC00000000000000000000102030406070809CD
:103BD000000000000102030480BFF2FE8020C182C9
:103BE00080AEE7BA802E5FBA80AECEBA8020B182B6
:103BF00080BFAAFE00809E00807BC7238029219180
:103C000080C6809E804D517D00FD5D1E809DBB095C
:103C100080309D9E80E110ED80FFFD0F0088FD004B
:103C200080A9DCFE808C628200FF31B900FD0CBAF5
:103C30000004A2BA80693B8280726EFE0000007EA2
:103C400006040C08103020607E7E00000000004258
:103C5000626272525A4A4E46464600000000001008
:103C60001010000000000000000000000000003CF8
:103C7000664660301C064242663C00000000004080
:103C80004040405E6242424242420000000000006A
:103C90000000003C467E4042661C00000000001808
:103CA000181818181818181818180000000000180C
:103CB0001818181818181818181800000000000014
:103CC00000000000000000000000000000000000F4
:103CD00000000000000000000000000000000000E4
:103CE0000000000000000000000000009C3D0008F3
:103CF000D123000800000000000000008000000048
:103D00000000000000000000E2988520E29885E5B0
:103D1000A3B0E6988EEFBC9AE6ADA4E4BBA3E7A0FF
:103D200081E78988E69D83E5BD9220E68CAFE58D2D
:103D300097E794B5E5AD9020E58F8A20504EE5AD2C
:103D4000A6E5A08220E68980E69C89E2988520E2AB
:103D50009885200D0A00000020202020202020200F
:103D600020202020205A4E275368656C6C20285A4A
:103D70004E53292076322E33316265746120202023
:103D800020506F77657265642042792059755A68B2
:103D9000656E6E616E0D0A0D0A0000007368656C39
:103DA0006C5461736B0000005461736B4E616D6500
:103DB000203A202573202C205461736B4E756D6260
:103DC0006572203D202564202C2043757272656E3B
:103DD000745374617465203D202564202C20437544
:103DE0007272656E745072696F72697479203D20C9
:103DF0002564202C20426173655072696F7269746A
:103E000079203D20202564202C2052756E54696D48
:103E100065436F756E746572203D202564202C53B8
:103E20007461636B4869676857617465724D61724C
:103E30006B203D202564202C205469636B436F75F3
:103E40006E74203D2025640D0A0D0A005F5F636DCE
:103E5000645F66756E6374696F6E31005468697370
:103E60002069732061207368656C6C2064656D6FD8
:103E700021005F5F636D645F68656C7000416C6C0E
:103E800020737570706F7274656420636F6D6D61FF
:103E90006E6473005F5F636D645F69616D004920EC
:103EA000616D205A4E5F5348454C4C005F5F636D17
:103EB000645F7074690073686F77207461736B203E
:103EC00074776F5F6C65645F746F67676C6520699A
:103ED0006E666F005F5F636D645F70746C00736823
:103EE0006F77207461736B6C697374005F5F636DCF
:103EF000645F6D656D0073686F7720686561702021
:103F000073697A65000000004C3E00085C3E0008C2
:103F1000AD180008723E00087D3E0008D518000864
:103F2000943E00089E3E00084D190008AC3E000873
:103F3000B63E000801220008D43E0008DE3E00081C
:103F400061220008EC3E0008F63E0008F11A000865
:103F5000703F000800000020840000000C140008DE
:103F6000F43F0008840000203C1600001C140008E8
:103F70000100000010000000000000000024F40018
:103F80000000000000000000000000000000000031
:103F90000000000000000000000000000000000021
:103FA0000000000000000000000000000000000011
:103FB0000000000000000000000000000000000001
:103FC00000000000000000000000000000000000F1
:103FD0000000000000000000AAAAAAAA0000000039
:103FE00000000000000000000000000000000000D1
:043FF00000000000CD
:0400000508000131BD
:00000001FF
